{
  "contractName": "Voting",
  "abi": [
    {
      "inputs": [],
      "payable": false,
      "stateMutability": "nonpayable",
      "type": "constructor"
    },
    {
      "constant": true,
      "inputs": [],
      "name": "timeCreated",
      "outputs": [
        {
          "internalType": "uint256",
          "name": "",
          "type": "uint256"
        }
      ],
      "payable": false,
      "stateMutability": "view",
      "type": "function"
    },
    {
      "constant": true,
      "inputs": [
        {
          "internalType": "address",
          "name": "",
          "type": "address"
        }
      ],
      "name": "voters",
      "outputs": [
        {
          "internalType": "uint256",
          "name": "",
          "type": "uint256"
        }
      ],
      "payable": false,
      "stateMutability": "view",
      "type": "function"
    },
    {
      "constant": true,
      "inputs": [
        {
          "internalType": "uint256",
          "name": "id",
          "type": "uint256"
        }
      ],
      "name": "getCandidate",
      "outputs": [
        {
          "internalType": "string",
          "name": "",
          "type": "string"
        }
      ],
      "payable": false,
      "stateMutability": "view",
      "type": "function"
    },
    {
      "constant": false,
      "inputs": [
        {
          "internalType": "uint256",
          "name": "id",
          "type": "uint256"
        }
      ],
      "name": "voteCandidate",
      "outputs": [],
      "payable": false,
      "stateMutability": "nonpayable",
      "type": "function"
    },
    {
      "constant": true,
      "inputs": [
        {
          "internalType": "uint256",
          "name": "id",
          "type": "uint256"
        }
      ],
      "name": "getVoteResults",
      "outputs": [
        {
          "internalType": "uint256",
          "name": "",
          "type": "uint256"
        }
      ],
      "payable": false,
      "stateMutability": "view",
      "type": "function"
    }
  ],
  "bytecode": "0x60806040524260095534801561001457600080fd5b506040518060400160405280600581526020017f50657465720000000000000000000000000000000000000000000000000000008152506000806003811061005857fe5b6003020160000190805190602001906100729291906102bb565b507368b87b5eb0908a23fc68788968a67a6d988ac2556000806003811061009557fe5b6003020160010160006101000a81548173ffffffffffffffffffffffffffffffffffffffff021916908373ffffffffffffffffffffffffffffffffffffffff1602179055506000806000600381106100e957fe5b60030201600201819055506040518060400160405280600681526020017f47656f7267650000000000000000000000000000000000000000000000000000815250600060016003811061013857fe5b6003020160000190805190602001906101529291906102bb565b507372f4752ba880387b3e4b1c229599e348a5381cb1600060016003811061017657fe5b6003020160010160006101000a81548173ffffffffffffffffffffffffffffffffffffffff021916908373ffffffffffffffffffffffffffffffffffffffff1602179055506000806001600381106101ca57fe5b60030201600201819055506040518060400160405280600781526020017f5269636861726400000000000000000000000000000000000000000000000000815250600060026003811061021957fe5b6003020160000190805190602001906102339291906102bb565b50731727fb67d31993494114d2fe171dc902085cc323600060026003811061025757fe5b6003020160010160006101000a81548173ffffffffffffffffffffffffffffffffffffffff021916908373ffffffffffffffffffffffffffffffffffffffff1602179055506000806002600381106102ab57fe5b6003020160020181905550610360565b828054600181600116156101000203166002900490600052602060002090601f016020900481019282601f106102fc57805160ff191683800117855561032a565b8280016001018555821561032a579182015b8281111561032957825182559160200191906001019061030e565b5b509050610337919061033b565b5090565b61035d91905b80821115610359576000816000905550600101610341565b5090565b90565b6105548061036f6000396000f3fe608060405234801561001057600080fd5b50600436106100575760003560e01c806335b8e8201461005c5780638c08a4dc14610103578063a3ec138d14610131578063a88922b314610189578063f1653f6e146101cb575b600080fd5b6100886004803603602081101561007257600080fd5b81019080803590602001909291905050506101e9565b6040518080602001828103825283818151815260200191508051906020019080838360005b838110156100c85780820151818401526020810190506100ad565b50505050905090810190601f1680156100f55780820380516001836020036101000a031916815260200191505b509250505060405180910390f35b61012f6004803603602081101561011957600080fd5b81019080803590602001909291905050506102ae565b005b6101736004803603602081101561014757600080fd5b81019080803573ffffffffffffffffffffffffffffffffffffffff1690602001909291905050506104d4565b6040518082815260200191505060405180910390f35b6101b56004803603602081101561019f57600080fd5b81019080803590602001909291905050506104ec565b6040518082815260200191505060405180910390f35b6101d3610519565b6040518082815260200191505060405180910390f35b606060038210156102a8576000826003811061020157fe5b600302016000018054600181600116156101000203166002900480601f01602080910402602001604051908101604052809291908181526020018280546001816001161561010002031660029004801561029c5780601f106102715761010080835404028352916020019161029c565b820191906000526020600020905b81548152906001019060200180831161027f57829003601f168201915b505050505090506102a9565b5b919050565b336000600a60008373ffffffffffffffffffffffffffffffffffffffff1673ffffffffffffffffffffffffffffffffffffffff1681526020019081526020016000205414610364576040517f08c379a000000000000000000000000000000000000000000000000000000000815260040180806020018281038252600e8152602001807f416c726561647920766f7465642e00000000000000000000000000000000000081525060200191505060405180910390fd5b603c60095401607860095401814210156103e6576040517f08c379a00000000000000000000000000000000000000000000000000000000081526004018080602001828103825260108152602001807f566f74656420746f6f206561726c792e0000000000000000000000000000000081525060200191505060405180910390fd5b8042111561045c576040517f08c379a000000000000000000000000000000000000000000000000000000000815260040180806020018281038252600f8152602001807f566f74656420746f6f206c6174652e000000000000000000000000000000000081525060200191505060405180910390fd5b60038410156104ce5760016000856003811061047457fe5b60030201600201600082825401925050819055506001600a60003373ffffffffffffffffffffffffffffffffffffffff1673ffffffffffffffffffffffffffffffffffffffff168152602001908152602001600020819055505b50505050565b600a6020528060005260406000206000915090505481565b60006003821015610513576000826003811061050457fe5b60030201600201549050610514565b5b919050565b6009548156fea265627a7a72315820ec1758384138110e6f3578ecb53497cd97ae2d06b3094cdd13faeb3fab3c1be764736f6c63430005100032",
  "source": "pragma solidity > 0.5.0;\n\n/* Define the smart contract Voting*/\ncontract Voting {\n\n    /*\n      Define a data structure called candidate\n    */\n    struct candidate {\n        /* Name of the candidate */\n        string name;\n        /* The Blockchain address of the candidate. This is not directly used in\n         this contract, but please think about what can it be used for? */\n        address ads;\n        /* Count the voting results of the candidate */\n        uint votes;\n    }\n\n    /* The list of all candidates. The example we only accepts three candidates */\n    candidate[3] candidatelist;\n\n    /* The constructor function of the contract */\n    constructor()\n        public\n    {\n        /* Initialize three candidates; their names, addresses and votes */\n        candidatelist[0].name = 'Peter';\n        candidatelist[0].ads = 0x68B87b5eb0908a23FC68788968a67A6d988aC255;\n        candidatelist[0].votes = 0;\n        candidatelist[1].name = 'George';\n        candidatelist[1].ads = 0x72f4752ba880387b3E4b1c229599E348A5381Cb1;\n        candidatelist[1].votes = 0;\n        candidatelist[2].name = 'Richard';\n        candidatelist[2].ads = 0x1727Fb67D31993494114d2fE171DC902085Cc323;\n        candidatelist[2].votes = 0;\n    }\n\n\n    /* Get a specific candidate based on their id: 0-2 */\n    function getCandidate(uint id)\n        public\n        view\n        returns(string memory)\n    {\n        if (id<candidatelist.length) {\n            return candidatelist[id].name;\n        }\n    }\n\n    /* Gets the time when the contract is created. */\n    uint public timeCreated = block.timestamp;\n\n    /* This modifier checks that a function is called between\n     two times. */\n    modifier onlyBetween(uint _time1, uint _time2)\n    {\n        require (block.timestamp >= _time1, \"Voted too early.\");\n        require (block.timestamp <= _time2, \"Voted too late.\");\n        _;\n    }\n\n    /* Creats a mapping, if someone has voted the value is set to 1. */\n    mapping(address => uint) public voters;\n\n    /* This modifier checks that a function is called by someone\n     who was not voted. */\n    modifier oneVote(address ads)\n    {\n        require (voters[ads] == 0, \"Already voted.\");\n        _;\n    }\n\n\n    /* Vote a specific candidate */\n    function voteCandidate(uint id)\n        public\n        oneVote(msg.sender)\n        onlyBetween(timeCreated + 1 minutes, timeCreated + 2 minutes)\n    {\n        if (id<candidatelist.length) {\n            candidatelist[id].votes += 1;\n            voters[msg.sender] = 1;\n        }\n    }\n\n    /* Get the voting results of a specific candidate */\n    function getVoteResults(uint id)\n        public\n        view\n        returns(uint)\n    {\n        if (id<candidatelist.length) {\n            return candidatelist[id].votes;\n        }\n    }\n\n}\n",
  "sourcePath": "/home/lars/Documents/Concurrency en Parallel programmeren/Assignment 5/Truffle/contracts/Voting.sol",
  "compiler": {
    "name": "solc",
    "version": "0.5.16+commit.9c3226ce.Emscripten.clang"
  },
  "schemaVersion": "3.3.2",
  "updatedAt": "2020-12-08T18:54:03.715Z",
  "networkType": "ethereum",
  "devdoc": {
    "methods": {}
  },
  "userdoc": {
    "methods": {}
  }
}